:020000040800F2
:10000000A8470020E9020008231F0008451C00083B
:10001000211F000843050008992300080000000084
:10002000000000000000000000000000290200089D
:10003000F105000800000000850200083D200008CE
:100040000303000803030008030300080303000878
:100050000303000803030008F30500080303000876
:100060000303000803030008030300080303000858
:100070000303000803030008030300080303000848
:100080000303000803030008030300080303000838
:1000900045050008030300080303000803030008E4
:1000A0000303000803030008030300080303000818
:1000B0000303000803030008030300080303000808
:1000C00003030008030300080303000803030008F8
:1000D00003030008030300080303000803030008E8
:1000E00003030008030300080303000803030008D8
:1000F00003030008030300080303000803030008C8
:1001000003030008030300080303000803030008B7
:10011000030300080303000803030008F920000894
:100120000303000803030008030300080303000897
:100130000303000803030008030300080303000887
:100140000303000803030008030300080303000877
:100150000303000803030008030300080303000867
:100160000303000803030008030300080303000857
:100170000303000803030008030300080000000055
:10018000030300080303000800F002F800F03CF845
:100190000AA090E8000C82448344AAF10107DA45E2
:1001A00001D100F031F8AFF2090EBAE80F0013F0F8
:1001B000010F18BFFB1A43F0010318477C31000000
:1001C0009C310000103A24BF78C878C1FAD8520791
:1001D00024BF30C830C144BF04680C6070470000C1
:1001E0000023002400250026103A28BF78C1FBD840
:1001F000520728BF30C148BF0B6070471FB503F0DE
:100200001DF81FBD10B510BD00F061F91146FFF7D4
:10021000F5FF02F0FDF800F07FF903B4FFF7F2FFFD
:1002200003BC00F087F900002C4B19680868B0E89F
:10023000F04F80F30988BFF36F8F4FF0000080F319
:10024000118870470000000008480068006880F3CB
:1002500008884FF0000080F3148862B661B6BFF3DF
:100260004F8FBFF36F8F00DF00BF00BF08ED00E0CE
:10027000DFF80C00016841F470010160704700BFB5
:1002800088ED00E0EFF30980BFF36F8F134B1A681E
:100290001EF0100F08BF20ED108A20E9F04F10600B
:1002A00009B44FF0500080F31188BFF34F8FBFF3B4
:1002B0006F8F02F0B7FD4FF0000080F3118809BC8A
:1002C00019680868B0E8F04F1EF0100F08BFB0ECD6
:1002D000108A80F30988BFF36F8F70472C000020CD
:1002E000EFF3058070470000094880470948004740
:1002F000FEE7FEE7FEE7FEE7FEE7FEE7FEE7FEE7D6
:10030000FEE7FEE704480549054A064B7047000032
:10031000E920000889010008A8410020A847002022
:10032000A8430020A843002053EA020C00F0698093
:100330002DE9F04B4FF00006002B1FBFB3FA83F5F9
:1003400003FA05F424FA05F65E4012BF1643B2FA2A
:1003500082F502FA05F4C5F120051EBF22FA05FC5C
:1003600044EA0C04203556EA044C4FEA144418BF02
:10037000641C4FF000084FF00009904271EB030C31
:1003800039D3002919BFB1FA81F701FA07F6B0FA9B
:1003900080F700FA07F6C7F120071EBF20FA07FC16
:1003A00046EA0C062037B6FBF4FCA7EB0507103F26
:1003B00007F01F0BCBF120060CFA0BFB2CFA06F60C
:1003C00044BFB3460026202FA4BF5E464FF0000B6B
:1003D0005BEA060C08BF4FF0010B19EB0B09ABFBF6
:1003E000027C48EB0608C01B06FB02CC0BFB03CCCF
:1003F00071EB0C01C1E70B46024641464846BDE899
:10040000F08B13B54FF000004FF00001AFF3008008
:10041000BDE81C40704710B5203AC0F00B80B1E831
:100420001850203AA0E81850B1E81850A0E8185029
:10043000BFF4F5AF5FEA027C24BFB1E81850A0E832
:10044000185044BF18C918C0BDE810405FEA827C4C
:1004500024BF51F8043B40F8043B08BF7047D20763
:1004600028BF31F8023B48BF11F8012B28BF20F804
:10047000023B48BF00F8012B70474FF0000200B567
:10048000134694469646203922BFA0E80C50A0E8B7
:100490000C50B1F12001BFF4F7AF090728BFA0E865
:1004A0000C5048BF0CC05DF804EB890028BF40F831
:1004B000042B08BF704748BF20F8022B11F0804F73
:1004C00018BF00F8012B704770477047704775469A
:1004D00000F02CF8AE4605006946534620F00700B0
:1004E000854618B020B5FFF70DFFBDE820404FF05E
:1004F00000064FF000074FF000084FF0000B21F00E
:100500000701AC46ACE8C009ACE8C009ACE8C009DA
:10051000ACE8C0098D46704710B50446AFF30080C3
:100520002046BDE81040FFF778BE00000048704745
:100530004841002001491820ABBEFEE7260002001A
:100540007047FEE7014800F0CAB90000F002002041
:1005500030B589B04FF40074029400240825049447
:10056000CDE90545040A8DF800408DF80100080A20
:100570008DF80200100A8DF804008DF80520180A85
:100580008DF806008DF803108DF8073008AB6A4629
:1005900002A9024800F044F809B030BDF002002082
:1005A00030B589B040F2FF14029400240825049469
:1005B000CDE90545040A8DF800408DF80100080AD0
:1005C0008DF80200100A8DF804008DF80520180A35
:1005D0008DF806008DF803108DF8073008AB6A46D9
:1005E00002A9024800F01CF809B030BDF00200205A
:1005F0007047012000F0F4BB72B6FEE790F82020AF
:10060000012A07D0022A05D0416A41F480214162C3
:1006100001207047006842690A4342610020704728
:10062000F0B590F820500468A468012D05D0022D83
:1006300003D0416A41F4802153E014F0406F01D1AE
:10064000E5004BD5C4F30164022C03D9416A41F49F
:10065000000146E00125A5401D608D684FF4C07380
:100660009DB1CE6835434E6845EAC605066803EB82
:100670000417F5514FF4C275076805EB04150E69B0
:100680007E51097D012905D009E00E88CD6845EA33
:100690004655EBE701684E5946F480764E51117984
:1006A000D2F805504FF4C67641EA0525016806EBFD
:1006B00004168D511178D2F801204FF4C47541EA27
:1006C0000221026805EB04155151006803EB041187
:1006D000425842F0010242500020F0BD416A41F40C
:1006E000001141620120F0BD10B590F82020012AD0
:1006F00007D0022A05D0416A41F4802141620120DD
:1007000010BD3B48D0F8002242F00102C0F80022A0
:10071000D0F8002222F47C52C0F80022D0F8002247
:100720004B6A42EA0322C0F800220A7D02F01F034E
:1007300001229A40D0F81C329343C0F81C32CB6996
:10074000B3B9D0F80C329343C0F80C328C894B68A3
:1007500064F31F434C6900EBC404C4F840320C89B5
:100760000B6864F31F434C6900EBC404C4F84432C3
:10077000CB69012B16D1D0F80C321343C0F80C32E0
:100780000C884B6864F31F434C6900EBC404C4F845
:1007900040320C89CB6864F31F434C6900EBC404FE
:1007A000C4F844328B69002BD0F804320ED01343C6
:1007B000C0F804320B69002BD0F8143208D0134370
:1007C000C0F81432096A012904D008E09343EFE726
:1007D0009343F5E7D0F81C121143C0F81C12D0F86F
:1007E000001221F00101C0F80012002010BD00002D
:1007F00000640040704730B590F82040012C05D0CF
:10080000022C03D0416A41F480215DE00468002994
:1008100055D02469A40754D04FF4D874056804EB6C
:1008200001142D5915F00405956005682D594ED019
:10083000ED08556005682C5904F00204D4604FF4AB
:10084000DA74056804EB01142D5905F00F051561E4
:1008500005682D59C5F30725956105682C59240CA9
:1008600054614FF4DC72046802EB0112A4581C704E
:100870000468A458240A5C700468A458240C9C7072
:100880000468A258120EDA704FF4DE72046802EBAC
:100890000112A4581C710468A458240A5C710468ED
:1008A000A458240C9C710468A258120EDA710068D6
:1008B00081B1016941F020010161002030BDE4688F
:1008C000A8E7416A41F400114162012030BD6D0D7D
:1008D0001560AFE7C16841F02001C160EDE72DE987
:1008E000F05F0546006800244669D0F804908768E8
:1008F000D0F80CB0D0F810A0D0F81880F10748D08C
:10090000F90714D001218160B80703D5284600F00B
:1009100052FA0CE0780702D54FF4006407E038077C
:1009200002D54FF4805402E0284600F043FAF8055F
:1009300016D529684FF480708860B80503D528461D
:1009400000F03BFA0CE0780502D544F4005407E0CF
:10095000380502D544F4804402E0284600F02CFA21
:10096000F80316D529684FF480308860B80303D5A2
:10097000284600F024FA0CE0780302D544F4004441
:1009800007E0380302D544F4803402E0284600F042
:1009900015FA300707D55FEACB6004D52968102027
:1009A00044F40074C86070074FF0080707D55FEA89
:1009B0000B7004D52868C760284600F057F9B007C7
:1009C00006D52868C068800702D0284600F050F994
:1009D000700607D55FEACA6004D52968102044F480
:1009E00080640861B00607D55FEA0A7004D52868FC
:1009F0000761284600F0AEF9F00606D528680069C0
:100A0000800702D0284600F0A6F9B00308D55FEAB7
:100A1000C96005D5296810204860284600F09CF977
:100A2000F00307D55FEA097004D5286847602846B7
:100A300000F0C6F9300446D55FEA497040D5F005AC
:100A400004D55FEAC87001D044F00104B00504D5B4
:100A50005FEA887001D544F00204700504D55FEAAE
:100A6000487001D544F00404300529D518F0700F02
:100A700026D008F07000402815D006DC102809D0D8
:100A800020280AD0302816D10AE050280ED060283D
:100A900011D10EE044F008040DE044F010040AE027
:100AA00044F0200407E044F0400404E044F08004F3
:100AB00001E044F480742868816921F0700181614B
:100AC000296804204860002C05D0686A20436862C9
:100AD0002846FFF78FFEBDE8F09F70B5040003D0F5
:100AE00094F8200010B104E0012070BD204600F011
:100AF00081F82068016841F00101016000F07AFA94
:100B00000546052604E000F075FA401B0A2811D8B6
:100B100020684068C007F6D02068016821F0020113
:100B2000016000F067FA05460BE000F063FA401B35
:100B30000A2806D9606A40F40030606284F82060B8
:100B4000D2E7206840688007EFD4207E0128206823
:100B500001683DD021F080010160607E012820689D
:100B6000016838D021F040010160A07E0128206892
:100B7000016833D021F020010160E07E0128206867
:100B800001682ED041F010010160207F012820680B
:100B9000016829D021F008010160607F01282068E8
:100BA000016824D021F004010160D4E90201084366
:100BB000D4E90412114308436168491E08432168BF
:100BC000C86100206062012084F82000002070BD10
:100BD00041F08001C0E741F04001C5E741F020014C
:100BE000CAE721F01001CFE741F00801D4E741F056
:100BF0000401D9E710B586B0044614216846FFF712
:100C00003CFC17492068884227D116480021026819
:100C100042F000720260006800F000700590114818
:100C20001038026842F0080202600068022200F0F8
:100C3000080005900320CDE90210CDE9000209204B
:100C400004906946084800F0D7F8002205211420D6
:100C500000F042FA142000F031FA06B010BD000096
:100C60000064004040380240000C02407047000021
:100C700030B504462DED048B89B007AB6A460021E0
:100C8000FFF7B9FD2C4884420AD10098A0F5007006
:100C9000013809D0042803D107A9284801F0AAFB8C
:100CA00009B0BDEC048B30BD07A9254801F0A2FBBB
:100CB000234D244C2888B5F90810411AB1F5805FFE
:100CC00002DD2168491E04E011F5805F02DA216827
:100CD000491C2160A18940F2E772411A20689FED0A
:100CE0001A8A504301EB800000EE100ADFED178AEC
:100CF000B0EE009AB8EEC00ADFED159A60EE080A71
:100D000080EEA80A20EE090A20EE290A01F01AFF57
:100D100084ED010AB5F9020000EE100AB8EEC00A2F
:100D200020EE080A20EE090A20EE290AC0EE280A61
:100D3000C4ED020AB4E70000F0020020A440002045
:100D400098400020FC40002000000039F62898411F
:100D5000DB0F4940704770477047000070B504468C
:100D600090F82000012804D0606A40F400206062FE
:100D700018E0022084F820002068016821F00101B9
:100D8000016000F037F905460EE000BF00F032F9CF
:100D9000401B0A2808D9606A40F4003060620520D0
:100DA00084F82000012070BD20684068C007EDD1A4
:100DB000606270BD704770477047704770477047FA
:100DC00070470000012808D104484168002904D177
:100DD000012101704FF47A71416070479400002046
:100DE000044910B50A68024202D00860FFF7EAFF22
:100DF00010BD0000143C01402DE9F84FDFF8BCA104
:100E00000022012503264FF00F090AF1040BAAF175
:100E1000040E00BF0B6805FA02F42340A34270D110
:100E20000F7907F00307012F01D0022F16D1876831
:100E30004FEA420806FA08FC27EA0C07D1F80CC072
:100E40000CFA08FC4CEA070CC0F808C04768A74336
:100E50000C79C4F3001494403C4344600C79E4439F
:100E6000A4070AD0C4684FEA420C06FA0CF7BC4348
:100E70008F6807FA0CF72743C7600C7904F0030466
:100E8000022C12D1D40800EB840CDCF82040570768
:100E9000FF0E09FA07F824EA0804D1F8108008FACE
:100EA00007F848EA0408CCF8208004684FEA420CAE
:100EB00006FA0CF7BC430F7907F0030707FA0CF7A3
:100EC000274307604C6814F4403F70D03C4C2768BF
:100ED00047F480472760246822F0030704F4804425
:100EE0000094384C07EB040CDCF8084897074FEAED
:100EF000177809FA08F7BC43334FB84202D10027EC
:100F000024E054E0314FB84201D101271EE0304FB8
:100F1000B84201D1022719E02E4FB84201D1032770
:100F200014E02D4FB84201D104270FE02B4FB842F7
:100F300001D105270AE02A4FB84201D1062705E072
:100F4000284FB84201D1072700E0082707FA08F721
:100F50002743CCF80878DAF800405746D1F804C0A7
:100F60009C435FEACC2C00D51C433C60DBF800407E
:100F70005F46D1F804C09C435FEA8C2C00D51C432B
:100F80003C60DEF800407746D1F804C09C435FEA3D
:100F90008C3C00D51C433C60084F083F3C68D1F8AE
:100FA00004C09C435FEACC3C00D51C433C60521C0F
:100FB000102AFFF42FAFBDE8F88F0000083C014075
:100FC000443802400030014000000240000402406A
:100FD00000080240000C02400010024000140240D1
:100FE00000180240001C02400AB1816170470904E8
:100FF000FBE7000001488068704700001C000020EB
:101000000248816802781144816070471C0000200A
:101010000B4810B5016841F400710160016841F4AA
:1010200080610160016841F480710160032000F07B
:1010300073F80F2000F006F800F024F8002010BD2F
:10104000003C024070B50D4D04464FF47A7128788B
:10105000B1FBF0F00A490968B1FBF0F000F0F0FADA
:1010600048B9102C07D200222146501E00F034F857
:1010700000206C6070BD012070BD00001C000020CD
:10108000280000200C4882B0016841F480410160D2
:10109000006800F4804000900748001F016841F09C
:1010A000805101600068002200F0805000900F2104
:1010B000901E02B000F010B844380240002809DB4E
:1010C00000F01F02012191404009800000F1E02062
:1010D000C0F8001170470000F0B40E4B1B680C46BE
:1010E000C3F30223C3F10705042D00D90425191DFC
:1010F000072901D2002300E0DB1E012606FA05F1D4
:10110000491E214099409E40761E16403143F0BC56
:1011100001F043B90CED00E0064900F00702086851
:101120004FF6FF03184040EA0220034A10430860CC
:10113000704700000CED00E00000FA052DE9F047D3
:101140000E46050065D0DFF81481D8F80000F7B22C
:1011500000F00700B04207D288F80070D8F800000D
:1011600000F00700B04254D128683D4C810712D5E9
:10117000400703D5206840F4E0502060287800073D
:1011800003D5206840F4604020602068A96820F002
:10119000F000084320602878C0072DD030496868E7
:1011A0000839012812D0022813D0032811D0096869
:1011B000890700292DDA216821F00301014321600C
:1011C000FFF718FF814641F2883A0EE0096889036B
:1011D000EFE709688901ECE7FFF70CFFA0EB0901D5
:1011E000514502D90320BDE8F0872068696800F006
:1011F0000C00B0EB810FEFD1D8F80010404601F0A1
:101200000701B14207D90770006800F00700B0423B
:1012100001D00120E7E72878400705D52068E96874
:1012200020F4E050084320602878000706D52068A5
:10123000296920F4604040EAC100206000F018F8FD
:101240002168084AC1F30311515CC840064908608F
:1012500006480068FFF7F6FE0020C4E7003C0240A5
:1012600008380240D4320008280000202000002066
:10127000154810B5006810F00C02144813D014493A
:10128000042A0FD0082A0ED10F4C241F226823688D
:1012900002F03F025B0207D52068C0F38810A0FB74
:1012A000010106E0084610BD2168C1F38811A1FBC9
:1012B00000010023FFF738F82168C1F30141491C00
:1012C0004900B0FBF1F010BD083802400024F400E2
:1012D000001BB7002DE9F84F04006ED02078DFF82E
:1012E0004C93C007A9F104054AD009F10400016834
:1012F000C1F38101012908D00068C0F381000228F0
:101300000AD1D9F80000400206D52868800337D5F5
:1013100060680028E1D033E06068B0F5803F10D00D
:10132000B0F5A02F286810D020F4803028602868FD
:1013300020F4802028606068A8B1FFF75BFE0646B5
:101340000DE0286840F48030F4E740F48020286005
:10135000F7E700BFFFF74EFE801B642873D82868AC
:101360008003F7D50CE0FFF745FE064605E000BF19
:10137000FFF740FE801B6428F0D828688003F7D46C
:101380002078DFF8AC8280074FF0000A3ED5A748EE
:10139000001D016811F00C0F08D00068C0F3810037
:1013A00002280BD1D9F80000400207D42868800732
:1013B00016D5E068012800D112E033E1E068B8B149
:1013C0000120C8F80000FFF715FE064605E000BF43
:1013D000FFF710FE801B0228C0D828688007F7D5C9
:1013E0002868216920F0F80040EAC10028600DE07B
:1013F000C8F800A0FFF7FEFD064604E0FFF7FAFD7F
:10140000801B02281FD828688007F7D4207800079F
:1014100022D5864F87486169703771B1012101601B
:10142000FFF7E8FD064604E0FFF7E4FD801B022815
:1014300009D838688007F7D50EE0C0F800A0FFF79C
:10144000D9FD064605E082E0FFF7D4FD801B0228A7
:101450007DD838688007F7D42078400768D5DFF852
:10146000CCB100270BF13C0BDBF80000C0000BD423
:10147000DBF8001041F08051CBF80010DBF80000E1
:10148000012700F0805000906B4E3068C00510D4EA
:10149000306840F480703060FFF7ACFD009005E0EC
:1014A000FFF7A8FD0099401A022850D83068C005FF
:1014B000F6D55E4EA0686C3601280FD0052830683E
:1014C00010D020F001003060306820F0040030605F
:1014D000A068B8B1FFF78EFD00900FE0306840F0D3
:1014E0000100F4E740F004003060F7E7FFF782FD09
:1014F0000099411A41F28830814266D830688007ED
:10150000F4D50EE0FFF776FD009007E0FFF772FDDF
:101510000099411A41F28830814256D830688007DC
:10152000F4D42FB1DBF8001021F08051CBF800107B
:10153000A069C8B33D49091D0968C1F381010229A9
:101540004AD00228504607D0C8F8600000E03CE0CE
:10155000FFF750FD04463BE04746C8F86000FFF740
:1015600049FD064605E000BFFFF744FD801B022849
:101570002BD828688001F7D4D4E907010843A16A71
:101580002E4A490802EB0141626A41EA821108438E
:1015900094F82C1040EA0161C9F800100120386667
:1015A000FFF728FD044606E03EE000BFFFF722FDFE
:1015B000001B022809D828688001F7D534E000BF55
:1015C000FFF718FD001B022802D90320BDE8F88FA1
:1015D00028688001F4D427E00128F7D0D9F800006A
:1015E000E26900F4800191421CD1226A00F03F01BF
:1015F000914217D147F6C071626A0140B1EB821F78
:1016000010D1A26A4FF0FF3300F4403103EB5202D5
:10161000B1EB024F06D194F82C1000F07060B0EBE3
:10162000016F01D00120D1E70020CFE7043802404C
:1016300000004742800E4742007000400000FFFF5C
:1016400010B5401EB0F1807F01D3012010BD4FF0D6
:10165000E02460610F21601700F09FFE0020A06170
:1016600007202061002010BD7047704710B590F82A
:101670003C20012A22D0012280F83C20CA688C68D4
:1016800022F4407222434C6822F4806222430C68A8
:1016900022F4006222430C6922F4805222434C69F6
:1016A00022F400522243C969002322F480420A43F3
:1016B00001684A6480F83C30002010BD022010BD53
:1016C00070B590F83C20012A32D0012480F83C40CB
:1016D000022280F83D2003685A689D6822F0700657
:1016E0000A6832435A60134B02689A4214D0B2F12E
:1016F000804F11D0104B9A420ED0104B9A420BD013
:101700000F4B9A4208D00F4B9A4205D00E4B9A428B
:1017100002D00E4B9A4204D1496825F08003194348
:10172000916080F83D40002180F83C10084670BD73
:10173000022070BD0000014000040040000800408D
:10174000000C00400004014000400140001800402F
:1017500010B5040003D094F83D0010B107E001205B
:1017600010BD002084F83C00204600F01FF8022045
:1017700084F83D00211D206800F0DAFC012084F887
:10178000460084F83E0084F83F0084F8400084F866
:10179000410084F8420084F8430084F8440084F84F
:1017A000450084F83D00002010BD000008B5006829
:1017B0000B49884212D10B48016841F020010160B9
:1017C0000068002200F02000009005213720FFF77C
:1017D00083FCBDE808403720FFF770BC08BD00005F
:1017E000001400404038024090F83D10012901D01B
:1017F00001207047022180F83D100168CA6842F05C
:101800000102CA6000681149884214D0B0F1804FCB
:1018100011D00F4988420ED00E4988420BD00E4994
:10182000884208D00D49884205D00D49884202D02F
:101830000C49884204D1816801F00701062903D0D0
:10184000016841F001010160002070470000014083
:101850000004004000080040000C0040000401406B
:101860000040014000180040704770B50446006811
:1018700001694FF00005C943890715D4C168C94300
:10188000890711D4E91E0161012020772068806951
:101890008007204602D0FFF7E7FF04E000F0C2F81F
:1018A000204600F067F9257720680169C943490798
:1018B00017D4C168C943490713D46FF0040101610B
:1018C000022020772068806910F4407F204602D0F3
:1018D000FFF7CAFF04E000F0A5F8204600F04AF93F
:1018E000257720680169C943090716D4C168C9432F
:1018F000090712D46FF008010161042020772068E5
:10190000C0698007204602D0FFF7AEFF04E000F078
:1019100089F8204600F02EF9257720680169C9432F
:10192000C90617D4C168C943C90613D46FF01001A2
:101930000161082020772068C06910F4407F2046AC
:1019400002D0FFF791FF04E000F06CF8204600F0B1
:1019500011F9257720680169C943C90708D1C16811
:10196000C943C90704D1891E0161204600F068F906
:1019700020680169C943090609D4C168C943090639
:1019800005D46FF0800101612046FFF76DFE2068ED
:101990000169C943490609D4C168C943490605D448
:1019A0006FF040010161204600F04BF920680169A9
:1019B000C94389060BD4C168C943890607D46FF0AF
:1019C000200101612046BDE87040FFF74EBE70BDAA
:1019D00010B586B0044614216846FEF74EFD0E4948
:1019E0002068884216D10D480021026842F010029A
:1019F0000260006800F0100005904FF40070009045
:101A00000220CDE901010120CDE903106946044817
:101A1000FFF7F2F906B010BD000001403038024077
:101A200000100240704770B5044690F83C00002654
:101A30000D4601280FD0012084F83C006AB1042A29
:101A40001DD0082A2FD00C2A3FD00126002084F870
:101A50003C00304670BD022070BD206800F0DAFB0B
:101A60002068816941F0080181612068816921F065
:101A700004018161206881692A69114311E02068AD
:101A800000F0F8FB2068816941F400618161206801
:101A9000816921F480618161206881692A6941EA54
:101AA00002218161D2E7206800F01AFC2068C16938
:101AB00041F00801C1612068C16921F00401C161E0
:101AC0002068C1692A69114311E0206800F03CFCDC
:101AD0002068C16941F40061C1612068C16921F4D5
:101AE0008061C1612068C1692A6941EA0221C1613E
:101AF000ACE710B5040003D094F83D0010B107E046
:101B0000012010BD002084F83C00204600F01EF8A3
:101B1000022084F83D00211D206800F009FB01200F
:101B200084F8460084F83E0084F83F0084F84000C2
:101B300084F8410084F8420084F8430084F84400AB
:101B400084F8450084F83D00002010BD08B5006809
:101B50000649884208D10648016841F00101016048
:101B6000006800F00100009008BD00000000014086
:101B7000443802407047000010B50446022249B1C3
:101B800004290ED0082913D094F84100012816D05A
:101B9000012010BD94F83E000128F9D184F83E20C0
:101BA0000FE094F83F000128F2D184F83F2008E0CC
:101BB00094F840000128EBD184F8402001E084F83B
:101BC00041200122206800F017FB16492068164AC0
:101BD000884201D0904203D1436C43F400434364F4
:101BE0002068884213D0B0F1804F10D00F4988424E
:101BF0000DD00F4988420AD00E49884207D0904242
:101C000005D00D49884202D00C49884204D1816830
:101C100001F00701062903D0016841F001010160CC
:101C2000002010BD000001400004014000040040FD
:101C300000080040000C0040004001400018004037
:101C400070477047FEE700000A4C4FF480664FF47F
:101C5000FA75012231462046FFF7C6F9284601F001
:101C60006DF8002231462046FFF7BEF9284601F004
:101C700065F8EEE7001C02400A4C4FF4006640F2A3
:101C8000EE25012231462046FFF7AEF9284601F045
:101C900055F8002231462046FFF7A6F9284601F004
:101CA0004DF8EEE7001C0240D0ED000AF4EEC00A49
:101CB000F1EE10FA06DCB1EE400AF4EEC00AF1EEE5
:101CC00010FA01D280ED000A704700000F4810B5ED
:101CD0000D4901600321416000214FF41022816011
:101CE000C0E903124FF40012426101764176817619
:101CF000C17601774177FEF7F0FE002803D0BDE8FA
:101D00001040FEF779BC10BD00640040F0020020D6
:101D100010B5A4B01C221C496846FEF77CFB0021CC
:101D2000684600F092FC194C17491C22A0601C3137
:101D300007A8FEF770FB002107A800F086FC1249F7
:101D4000E0601C2238310EA8FEF765FB00210EA8CA
:101D500000F07BFC0C4920611C22543115A8FEF7D1
:101D60005AFB002115A800F070FC074920601C22D6
:101D700070311CA8FEF74FFB00211CA800F065FC89
:101D8000606024B010BD0000483200080800002048
:101D900070B586B014216846FEF76FFB2248002517
:101DA000016841F001010160016801F00101059144
:101DB000016841F008010160016801F00801059126
:101DC000016841F080010160016801F08001059126
:101DD000016841F0100101600068144E00F010002D
:101DE0004FF4E0540590002221463046FFF7FCF8FE
:101DF00000940124CDE90145694630460395FEF77C
:101E0000FBFF4FF48810CDE9004069460848029472
:101E1000FEF7F2FF002205210620FFF75DF90620FC
:101E2000FFF74CF906B070BD30380240001C02408C
:101E30000000024010B592B000240F941C2108A8A5
:101E40001094FEF71AFB20216846FEF716FB214886
:101E50001F49016040F28F61C0E9011440F2E7318F
:101E6000C0E9031444618461FFF743FE08B1FEF743
:101E7000C3FB0F940FA917481094FFF721FC08B17A
:101E8000FEF7BAFB6020CDE908040A940B940C9489
:101E90000D94002208A90F480E94FFF7C4FD08B165
:101EA000FEF7AAFB00944FF40050CDE904400294E1
:101EB00001940394694607480794FFF7D7FB08B1DC
:101EC000FEF79AFB0348FFF783FD12B010BD000038
:101ED00000000140180300201CB500240F480094A6
:101EE0000D49019401605321C0E901144FF47A7146
:101EF000C16080218161FFF72BFC08B1FEF77CFBFC
:101F00000094694605480194FFF7DAFB002801D0E8
:101F1000FEF772FB1CBD00000014004060030020AF
:101F2000FEE7FEE710B504002DED028BB0EE418A0E
:101F300044D0C4ED070A84ED080A30EEC00A00F070
:101F400001FEDFED200A9FED201A84ED030A60EE0A
:101F5000200A04F12C00C0EE811AC4ED041AD4ED5D
:101F6000000A60EE800AC4ED0A0AD4ED0B0A94ED73
:101F7000011A41EE000AC4ED0B0A94ED020A20EEAC
:101F8000080A84ED0C0A94ED060AFFF78DFE94ED25
:101F90000A0AD4ED0B0A04F1240030EE200AD4ED35
:101FA0000C0A30EE200A84ED090A94ED050AFFF7C9
:101FB0007BFE94ED090ABDEC028B10BD9FED030A78
:101FC000F9E7000000003443DB0F49400000000047
:101FD000002817D0002915D091ED001A80ED001AC5
:101FE00091ED011A80ED011A91ED021A80ED021AAD
:101FF00080ED050A9FED040AC0ED060A80ED040A93
:1020000080ED030A704700000000000000F0BEFDF4
:102010004B26074C4FF47A757D2720684663284687
:1020200000F006FB20684763284600F001FBF4E758
:1020300018030020012000F0FBFAFBE710B5FEF7C3
:10204000DFFF01F01DF8012803D0BDE8104000F0CB
:102050009BBF10BD30B593B030216846FEF70DFA36
:1020600014210CA8FEF709FA1D480025016841F06B
:1020700080510160006800F080501190194801689B
:1020800041F4804101600068022400F48040119016
:1020900001200090000401908001CDE90640062057
:1020A0000890A820CDE9090404200B906846FFF7AA
:1020B00011F908B172B6FEE70CA90F2081E83100D2
:1020C0004FF4A0500F904FF48050109005210CA8B1
:1020D000FFF734F8002801D072B6FEE713B030BD28
:1020E00040380240007000400248016841F470012D
:1020F0000160704788ED00E010B50A48FFF7B5FBB6
:1021000009490868401C08604FF47A71B0FBF1F28D
:1021100001FB1200002803D104480168491C01603A
:1021200010BD00006003002000000020040000201B
:10213000F0B50268254C264D264E274F274B4FF011
:10214000804CA04209D0604507D0A84205D0B042DB
:1021500003D0B84201D0984204D122F0700E4A68F0
:1021600042EA0E02A0421BD0604519D0A84217D007
:10217000B04215D0B84213D0984211D0184DA842A1
:102180000ED0184DA8420BD0174DA84208D0174DBD
:10219000A84205D0164DA84202D0164DA84203D140
:1021A00022F44075CA682A434D6922F080022A430E
:1021B00002608A68C2620A688262A04201D09842C4
:1021C00001D10969016301214161F0BD00000140B5
:1021D0000004004000080040000C004000040140E2
:1021E0000040014000440140004801400018004008
:1021F000001C00400020004010B501F01F03012129
:10220000046A99408C430462016A9A401143016256
:1022100010BD0000F0B5026A22F001020262036AFA
:1022200042688469124E24F073050C682C4323F035
:1022300002058B682B430D4DA84201D0B04205D159
:1022400023F00807CB683B4323F00403A84201D0E6
:10225000B04205D14D6922F4407215438A692A4380
:1022600042608461496841630362F0BD000001403F
:1022700000040140F0B5026A22F010020262026A14
:10228000436884690D6824F4E64444EA05248D68B3
:1022900022F0200242EA05120F4D104EA84201D052
:1022A000B04206D1CF6822F0800242EA071222F043
:1022B0004002A84201D0B04207D14D6923F44063E7
:1022C00043EA85038D6943EA850343608461496875
:1022D00081630262F0BD0000000001400004014083
:1022E000F0B5026A22F480720262026A4368C4692D
:1022F00022F4007224F073050C68124E2C438D6892
:1023000042EA05220E4DA84201D0B04206D1CF6864
:1023100022F4006242EA072222F48062A84201D03D
:10232000B04207D14D6923F4405343EA05138D6948
:1023300043EA05134360C4614968C1630262F0BDAA
:10234000000001400004014030B5026A22F48052CE
:102350000262046A4268C3690D6823F4E64343EAF3
:1023600005238D6824F4005444EA0534084DA8423E
:1023700002D0084DA84204D14D6922F4804242EABD
:1023800085124260C36149680164046230BD000087
:102390000000014000040140FEE70907090E002883
:1023A00004DB00F1E02080F80014704700F00F001B
:1023B00000F1E02080F8141D7047000000B58BB0DC
:1023C00000200121CDE906010891009001900290C2
:1023D00003900590049069460548FEF785F9044886
:1023E000FEF7BCFC02210248FEF708F90BB000BD65
:1023F000F0020020028802810A8852BA02804A88CC
:1024000052BA42808A8852BA828089798171704733
:10241000FEF7FEFDFFF71EFEFFF7BAFCFFF70AFD11
:10242000FFF754FCFFF758FD00210648FFF7A4FB17
:102430000548FFF7D9F9FFF7C1FFFFF769FC00F086
:10244000FFF8FEE718030020600300200021842825
:1024500000D0C11C0846704700B5264800222DED6B
:10246000028B87B000F14C0182819FED230A8A81A3
:1024700081ED020A80ED020A0A60026091ED010A14
:10248000DFED1E0A81ED040A58399FED208A098884
:10249000A1F5805100EE101AB8EEC00A20EE200A15
:1024A000F0EE000A20EE200ADFED150A20EE200AE9
:1024B000DFED150A80ED010A80ED040A1148B0EE47
:1024C000480A0EC88DE80E0007C803AB83E8070072
:1024D000084869466030FFF77BFD0648DFED0C0ACF
:1024E000B0EE480A03A91430FFF772FD07B0BDEC47
:1024F000028B00BDB0400020000000000000003949
:10250000DB0F4940E43200080000FA4300409C45DC
:1025100000007A442DED048B4FF47A7000F00EFC2D
:10252000FFF79AFF3C4E9FED3D8A06F10C05DFED6B
:102530003C8A9FED3C9A3C4F05F14C04F0EE009A2A
:1025400005F1140904F114087868002801DD401E23
:102550007860B6F90200400000EE100AB8EEC00A3A
:1025600020EE080AC0EE280AC5ED020A3088A0F560
:10257000805000EE100AB8EEC00A20EE090A20EEE4
:10258000290A20EE080A85ED010A387888B19FED06
:10259000271A30EE010A00F0D5FA85ED040A94ED11
:1025A000010A30EE010A00F0CDFA84ED040A0020A1
:1025B000387095ED021AD5ED040A95ED010A4846EA
:1025C000FFF7B0FC85ED120A94ED021AD4ED040A6F
:1025D00094ED010A4046FFF7A5FC84ED120A95ED43
:1025E000120A00231A46BDEEC00A194610EE100A60
:1025F00000B2FDF7D5FF94ED120A00231A46BDEE96
:10260000C00A194610EE100A00B2FDF7A1FF012022
:1026100000F094FB98E70000A4400020DB0F494045
:10262000000070420000003994000020DB0FC93F19
:1026300010B5002800D1012000F080FB002010BD63
:1026400010B500F0A3FB002010BD30B585B00446E6
:102650000D466169B4F90800002910D0A16971B173
:10266000FFF7F4FE6269A1690192029100902B4686
:1026700022692168606800F0D3FC049010E0FFF745
:10268000E5FE04A901910090208A2B4682B22168C0
:10269000606800F08FFC012802D005B0002030BD3A
:1026A000049805B030BD00002DE9F04104460F4606
:1026B000194EF5683068001D00F072FA48B93068AC
:1026C000012190F82C0001FA00F0316921EA0000A4
:1026D0003061B4F1FF3F07D137B13068BDE8F04158
:1026E000011D0E4800F0A3BA2C4430684460AC428F
:1026F00006D23068011DB06BBDE8F04100F07CBA35
:102700003068011D706B00F077FAB06A844200D225
:10271000B462BDE8F08100002C0000208404002099
:1027200070B5044600F090FA1C4DA868401CA860E3
:10273000286810B1686938B10CE02C60A8680128DD
:1027400008D100F0EDF805E02868E16AC06A884227
:1027500000D82C60686A401C6862E06A01212A691E
:102760008140114329610E4900EB800001EB80009C
:10277000211D00F05CFA00F087FA686900280CD08F
:102780002868E16AC06A884207D206494FF0805043
:102790000860BFF34F8FBFF36F8F70BD2C00002018
:1027A000A803002004ED00E070B50D4C606800281F
:1027B00015D00C4E00F048FAF068C568281D00F0EE
:1027C000EFF9A068401EA0606068401E606000F0E5
:1027D0005BFA284600F008F860680028EAD170BD6E
:1027E0002C0000207004002010B5044694F851100D
:1027F00000290BD0012911D0022914D0502080F3D8
:102800001188BFF34F8FBFF36F8FFEE7206B00F08F
:1028100051FA2046BDE8104000F04CBA2046BDE811
:10282000104000F047BA10BD4FF47051104810F03E
:10283000070F06D0C01D20F007000D49411AC1F551
:1028400070510C4A1060002353600144083921F094
:102850000701183A11604B600B600B1A436001606E
:102860004068906050604FF0004050617047000039
:102870009804002080000020074E4FF08054074D40
:10288000FFF792FF30680128FAD92C60BFF34F8F11
:10289000BFF36F8FF4E70000A803002004ED00E011
:1028A0002DE9F0478146099E089D0A9C9A46521ED2
:1028B000206B00EB820020F00708002700290CD0D5
:1028C000002023180A5C83F834200A5C12B1401CF3
:1028D0001028F6D384F8437001E084F83470072D93
:1028E00000D30625E5626564A764201D00F081F928
:1028F00004F1180000F07DF92461C5F10700A06122
:102900006462E76484F8507052464946404600F0DD
:1029100003F92060002E00D03460BDE8F08700008D
:1029200070B500240F4D04EB840005EB800000F02F
:1029300055F9641C072CF6D30B4800F04FF90B48EF
:1029400000F04CF90A4800F049F90A4800F046F94D
:10295000094800F043F90948034941631431816390
:1029600070BD0000A80300203404002048040020AB
:102970005C04002070040020840400202C0000204F
:1029800010B4144900E011460A688242FBD34B6838
:1029900003EB010C844503D14068184448600846A5
:1029A0000C68D0F804C00CEB0003A3420CD10A4B16
:1029B0001B689A4206D05268624442600A681268F4
:1029C000026002E0036000E00260814200D0086023
:1029D00010BC704780000020680000200749486B49
:1029E0000068002805D0486BC068C06840688862ED
:1029F00070474FF0FF308862704700002C000020C5
:102A00000A484068B0F1FF3F07D0502080F311889A
:102A1000BFF34F8FBFF36F8FFEE7502080F3118815
:102A2000BFF34F8FBFF36F8FFEE7000088000020D9
:102A30002DE9F0410546002600F0ECF9344F3868E6
:102A400008B9FFF7F1FE7869054251D19DB108350B
:102A500015F0070F0FD005F00700C0F1080005447E
:102A600015F0070F07D0502080F31188BFF34F8F68
:102A7000BFF36F8FFEE7002D3AD07868854237D8D4
:102A800024490846046801E0214604466068A842DB
:102A900002D220680028F7D13868844228D008681C
:102AA00000F10806206808606068411B10290FD9F2
:102AB000601910F0070F07D0502080F31188BFF382
:102AC0004F8FBFF36F8FFEE741606560FFF758FFE0
:102AD00061687868401A7860BA68904200D2B8603D
:102AE00078690843606000202060F868401CF86046
:102AF00000F03EFB16F0070F07D0502080F311883E
:102B0000BFF34F8FBFF36F8FFEE73046BDE8F08114
:102B10006800002080000020001F4FF080730360D9
:102B2000001F21F001010160001F054901601438F8
:102B30000260001F6FF00201016020387047000042
:102B4000012A000810EE100A0D49DFED0E0A884236
:102B500002DC06E030EE600A10EE100A8842F9DC72
:102B6000704710EE100A0849884203D8704700BF2A
:102B700030EE200A10EE100A8842F9D870470000A3
:102B8000DB0F4940DB0FC940DB0F49C0034964201C
:102B9000096848634FF47A70FFF74ABD18030020B4
:102BA0000169436882689A60836842685A604A682B
:102BB000824201D182684A60002202610868401E98
:102BC0000860086870470000034B036003F154007D
:102BD00008608020106070479C00002000F1080110
:102BE00041604FF0FF328260C160016100210160ED
:102BF000704700210161704710B4D1F800C0BCF1EA
:102C0000FF3F02D000F1080202E0026904E01A4628
:102C100053681C686445FAD953684B6099608A60B0
:102C2000516008610168491C016010BC704742682E
:102C30004A6093688B60936859609160086101688D
:102C4000491C016070470000502080F31188BFF3D9
:102C50004F8FBFF36F8F0A494868401C48600128B6
:102C60000CD10848006810F0FF0F07D0502080F307
:102C70001188BFF34F8FBFF36F8FFEE770470000DF
:102C80008800002004ED00E009494868002806D0CB
:102C9000401E4860002801D180F311887047502001
:102CA00080F31188BFF34F8FBFF36F8FFEE70000F3
:102CB0008800002070B500282AD0A0F10804154D26
:102CC00060686969084207D1502080F31188BFF31A
:102CD0004F8FBFF36F8FFEE722683AB1502080F329
:102CE0001188BFF34F8FBFF36F8FFEE7884360609B
:102CF00000F090F860686968084468602046FFF753
:102D00003FFE2869401C2861BDE8704000F030BAE1
:102D100070BD0000680000204FF0E020002101613C
:102D2000816105494FF47A720968B1FBF2F1491EDD
:102D300041610721016170472800002010B502465B
:102D40000020002A12D00F48006B38B1502080F3C9
:102D50001188BFF34F8FBFF36F8FFEE700F05AF873
:102D600000211046FFF7A0FC00F002FA002807D16E
:102D700005494FF080500860BFF34F8FBFF36F8F4E
:102D800010BD00002C00002004ED00E010B586B05E
:102D900000240594049403AA04A905A8FFF714FFCE
:102DA00005980499019102900023009415A11748F9
:102DB000039A00F035F91649C86208B1012000E015
:102DC000002001280AD0B0F1FF3F19D1502080F334
:102DD0001188BFF34F8FBFF36F8FFEE7502080F352
:102DE0001188BFF34F8FBFF36F8F4FF0FF308862B2
:102DF00001204861CC6006B0BDE8104000F042B848
:102E000006B010BD49444C45000000007928000878
:102E10002C0000200248016B491C01637047000030
:102E20002C000020154A106B002802D00120D06130
:102E300070470020D0611069B0FA80F0C0F11F0027
:102E40000F4900EB800051F8203073B101EB800096
:102E500041684968416000F10803994201D149681D
:102E600041604068C06810607047502080F311884E
:102E7000BFF34F8FBFF36F8FFEE700002C000020E1
:102E8000A803002010B582B038480168384A914242
:102E900007D1502080F31188BFF34F8FBFF36F8F9E
:102EA000FEE700683349884207D1502080F311883B
:102EB000BFF34F8FBFF36F8FFEE72F490878019064
:102EC000FF200870087800909DF800009DF8002011
:102ED00000F0F000904207D0502080F31188BFF33B
:102EE0004F8FBFF36F8FFEE79DF80000234C00F07B
:102EF000500020700720A0609DF8000010F0800FA7
:102F00000BD0A068401EA0609DF80000400000901B
:102F10009DF8000010F0800FF3D1A068032807D0BF
:102F2000502080F31188BFF34F8FBFF36F8FFEE700
:102F30004FF44070A060019808701148016841F496
:102F400070010160016841F070410160FFF7E4FE2B
:102F500000206060FDF78CF90A48016841F04041AB
:102F60000160FDF771F902B0002010BD00ED00E036
:102F700071C20F4170C20F4100E400E088000020E0
:102F800020ED00E034EF00E010B5502080F3118810
:102F9000BFF34F8FBFF36F8F00F080F818B1044973
:102FA0004FF080500860002080F3118810BD0000B1
:102FB00004ED00E02DE9F04F85B081460F9F0E9E95
:102FC0008A4690469B464FEA8800FFF731FD05464A
:102FD00028000AD05420FFF72BFD04460CB12563CE
:102FE00004E02846FFF766FE00E000249CB10020C4
:102FF00084F8510003905B46424651460197009683
:1030000002944846FFF74CFC2046FFF789FB05B0C9
:103010000120BDE8F08F05B04FF0FF30BDE8F08F24
:1030200070B586B00646DDF828C00C9C0B980028C9
:1030300016D0ECB1542504952063022084F8510089
:10304000002005AD0390CDF800C0019502943046F4
:10305000FFF726FC2046FFF763FB059806B070BD1E
:10306000502080F31188BFF34F8FBFF36F8FFEE7BF
:10307000502080F31188BFF34F8FBFF36F8FFEE7AF
:1030800005484169002903D0006B18B10020704742
:1030900001207047022070472C0000202DE9F047E6
:1030A0000026314F386B002805D0B869401CB86144
:1030B0003046BDE8F087F868451CFD609DB9786B27
:1030C000006838B1502080F31188BFF34F8FBFF3F1
:1030D0006F8FFEE7786BB96B7963B863386A401C11
:1030E0003862FFF77BFCB86ADFF8808085420FD337
:1030F0004FF00109786B006838B1786BC068C4681C
:103100006068854212D2B86202E04FF0FF30B862C8
:103110003868C06A00EB800058F82000012800D908
:103120000126F8690028C3D00126C1E7201DFFF75A
:1031300037FDA06A18B104F11800FFF731FDE16A0C
:103140003A6909FA01F01043386101EB810008EB9C
:103150008000211DFFF76BFDE06A3968C96A88426B
:10316000C8D30126C6E700002C000020A8030020D9
:103170002DE9F0470024A0462D4D286B002807D0EC
:10318000FFF762FD286B401E2863286B40B149E0C1
:10319000502080F31188BFF34F8FBFF36F8FFEE78E
:1031A000A86800283ED0234F3868012600B3A7F155
:1031B000B409F868C46804F11800FFF7F1FC201D99
:1031C000FFF7EEFCE06A2A6906FA00F11143296173
:1031D00000EB800009EB8000211DFFF728FDE06A6D
:1031E0002968C96A884200D3EE6138680028E0D1B6
:1031F0000CB1FFF7F3FBAC6944B1FFF74FFF00B12F
:10320000EE61641E002CF8D10020A861E86948B185
:103210004FF0010808494FF080500860BFF34F8F0E
:10322000BFF36F8FFFF730FD4046BDE8F087000029
:103230002C0000205C04002004ED00E04FF0407002
:10324000E1EE100A70470000203300083520000826
:1032500000000000000000008000000000000000EE
:1032600000000000FC320008491C000800000000BB
:1032700000000000800000000000000000000000CE
:10328000083300080D2000080200000000000000C4
:103290008000000000000000000000002C33000847
:1032A000791C000800000000000000008000000001
:1032B000000000000000000014330008152500087D
:1032C000000000000000000080000000000000007E
:1032D00000000000000000000000000001020304E4
:1032E000060708090000FA44000000000050C3C6A9
:1032F0000000FA4500000000000000004C45445F5B
:10330000426C756500000000536572766F546173FE
:103310006B0000004D6F746F725461736B0000009E
:1033200064656661756C745461736B004C45445FF1
:10333000477265656E0000005833000800000020E9
:103340009C000000C4010008F43300089C00002029
:103350000C470000E0010008000000000000000031
:10336000000000000000000000000000000000005D
:10337000000000000100000010000000000000003C
:103380000024F40000000000000000000000000025
:10339000000000000000000000000000000000002D
:1033A000000000000000000000000000000000001D
:1033B000000000000000000000000000000000000D
:1033C00000000000000000000000000000000000FD
:1033D00000000000000000000000000000000000ED
:1033E00000000000AAAAAAAA000000000000000035
:0433F000E8030000EE
:040000050800018965
:00000001FF
