:020000040800F2
:10000000A8460020E902000813160008C5130008DE
:1000100011160008430500086919000800000000D7
:10002000000000000000000000000000290200089D
:10003000950500080000000085020008451600082C
:100040000303000803030008030300080303000878
:100050000303000803030008030300080303000868
:100060000303000803030008030300080303000858
:100070000303000803030008030300080303000848
:100080000303000803030008030300080303000838
:100090000303000803030008030300080303000828
:1000A0000303000803030008030300080303000818
:1000B0000303000803030008030300080303000808
:1000C00003030008030300080303000803030008F8
:1000D00003030008030300080303000803030008E8
:1000E00003030008030300080303000803030008D8
:1000F00003030008030300080303000803030008C8
:1001000003030008030300080303000803030008B7
:1001100003030008030300080303000803030008A7
:100120000303000803030008030300080303000897
:100130000303000803030008030300080303000887
:100140000303000803030008030300080303000877
:100150000303000803030008030300080303000867
:100160000303000803030008030300080303000857
:100170000303000803030008030300080000000055
:10018000030300080303000800F002F800F03CF845
:100190000AA090E8000C82448344AAF10107DA45E2
:1001A00001D100F031F8AFF2090EBAE80F0013F0F8
:1001B000010F18BFFB1A43F001031847CC240000BD
:1001C000EC240000103A24BF78C878C1FAD852074E
:1001D00024BF30C830C144BF04680C6070470000C1
:1001E0000023002400250026103A28BF78C1FBD840
:1001F000520728BF30C148BF0B6070471FB502F0DF
:10020000D1F91FBD10B510BD00F061F91146FFF71F
:10021000F5FF01F0BBFB00F07FF903B4FFF7F2FF3D
:1002200003BC00F087F900002C4B19680868B0E89F
:10023000F04F80F30988BFF36F8F4FF0000080F319
:10024000118870470000000008480068006880F3CB
:1002500008884FF0000080F3148862B661B6BFF3DF
:100260004F8FBFF36F8F00DF00BF00BF08ED00E0CE
:10027000DFF80C00016841F470010160704700BFB5
:1002800088ED00E0EFF30980BFF36F8F134B1A681E
:100290001EF0100F08BF20ED108A20E9F04F10600B
:1002A00009B44FF0500080F31188BFF34F8FBFF3B4
:1002B0006F8F01F06BFF4FF0000080F3118809BCD5
:1002C00019680868B0E8F04F1EF0100F08BFB0ECD6
:1002D000108A80F30988BFF36F8F704724000020D5
:1002E000EFF3058070470000094880470948004740
:1002F000FEE7FEE7FEE7FEE7FEE7FEE7FEE7FEE7D6
:10030000FEE7FEE704480549054A064B7047000032
:10031000F116000889010008A8400020A846002026
:10032000A8420020A842002053EA020C00F0698095
:100330002DE9F04B4FF00006002B1FBFB3FA83F5F9
:1003400003FA05F424FA05F65E4012BF1643B2FA2A
:1003500082F502FA05F4C5F120051EBF22FA05FC5C
:1003600044EA0C04203556EA044C4FEA144418BF02
:10037000641C4FF000084FF00009904271EB030C31
:1003800039D3002919BFB1FA81F701FA07F6B0FA9B
:1003900080F700FA07F6C7F120071EBF20FA07FC16
:1003A00046EA0C062037B6FBF4FCA7EB0507103F26
:1003B00007F01F0BCBF120060CFA0BFB2CFA06F60C
:1003C00044BFB3460026202FA4BF5E464FF0000B6B
:1003D0005BEA060C08BF4FF0010B19EB0B09ABFBF6
:1003E000027C48EB0608C01B06FB02CC0BFB03CCCF
:1003F00071EB0C01C1E70B46024641464846BDE899
:10040000F08B13B54FF000004FF00001AFF3008008
:10041000BDE81C40704710B5203AC0F00B80B1E831
:100420001850203AA0E81850B1E81850A0E8185029
:10043000BFF4F5AF5FEA027C24BFB1E81850A0E832
:10044000185044BF18C918C0BDE810405FEA827C4C
:1004500024BF51F8043B40F8043B08BF7047D20763
:1004600028BF31F8023B48BF11F8012B28BF20F804
:10047000023B48BF00F8012B70474FF0000200B567
:10048000134694469646203922BFA0E80C50A0E8B7
:100490000C50B1F12001BFF4F7AF090728BFA0E865
:1004A0000C5048BF0CC05DF804EB890028BF40F831
:1004B000042B08BF704748BF20F8022B11F0804F73
:1004C00018BF00F8012B704770477047704775469A
:1004D00000F02CF8AE4605006946534620F00700B0
:1004E000854618B020B5FFF70DFFBDE820404FF05E
:1004F00000064FF000074FF000084FF0000B21F00E
:100500000701AC46ACE8C009ACE8C009ACE8C009DA
:10051000ACE8C0098D46704710B50446AFF30080C3
:100520002046BDE81040FFF778BE00000048704745
:100530004440002001491820ABBEFEE7260002001F
:100540007047FEE730B589B04FF400740294002480
:1005500008250494CDE90545040A8DF800408DF87E
:100560000100080A8DF80200100A8DF804008DF8C9
:100570000520180A8DF806008DF803108DF8073055
:1005800008AB6A4602A9024800F007F809B030BD7E
:10059000E4020020704772B6FEE7F0B590F82050F4
:1005A0000468A468012D05D0022D03D0416A41F4EE
:1005B00080215DE014F0406F01D1E50055D5C4F312
:1005C0000164022C03D9416A41F4000150E0012585
:1005D000A5401D608D684FF4C0739DB1CE68354352
:1005E0004E6845EAC605066803EB0417F5514FF45B
:1005F000C275076805EB04150E697E51097D012956
:1006000005D009E00E88CD6845EA4655EBE701685C
:100610004E5946F480764E511179D579567941EA92
:10062000056195792D0445EA062529434FF4C676E0
:10063000056806EB0416A9511178D57841EA0561E1
:10064000957852782D0445EA022211434FF4C4757F
:10065000026805EB04155151006803EB0411425880
:1006600042F0010242500020F0BD416A41F4001105
:1006700041620120F0BD70B5040003D094F8200061
:1006800010B104E0012070BD204600F081F8206820
:10069000016841F00101016000F0C0F9054605263E
:1006A00004E000F0BBF9401B0A2811D8206840681C
:1006B000C007F6D02068016821F00201016000F057
:1006C000ADF905460BE000F0A9F9401B0A2806D950
:1006D000606A40F40030606284F82060D2E72068ED
:1006E00040688007EFD4207E0128206801683DD053
:1006F00021F080010160607E01282068016838D007
:1007000021F040010160A07E01282068016833D0FB
:1007100021F020010160E07E0128206801682ED0D0
:1007200041F010010160207F01282068016829D074
:1007300021F008010160607F01282068016824D051
:1007400021F004010160D4E902010843D4E9041254
:10075000114308436168491E08432168C8610020AD
:100760006062012084F82000002070BD41F080010B
:10077000C0E741F04001C5E741F02001CAE721F0A0
:100780001001CFE741F00801D4E741F00401D9E7B7
:1007900010B586B0044614216846FFF76EFE144972
:1007A0002068884221D113480021026842F000727B
:1007B0000260006800F0007005900E481038026872
:1007C00042F002020260006800F0020005904FF45F
:1007D000407000900220CDE9010103200390092020
:1007E00004906946044800F01BF806B010BD0000F4
:1007F00000640040403802400004024070B50446E6
:1008000000F00CF90546601C02D00448007804444E
:1008100000F004F9401BA042FAD370BD1400002080
:100820002DE9F84FDFF8BCA10022012503264FF087
:100830000F090AF1040BAAF1040E00BF0B6805FAB8
:1008400002F42340A34270D10F7907F00307012F70
:1008500001D0022F16D187684FEA420806FA08FC39
:1008600027EA0C07D1F80CC00CFA08FC4CEA070C7C
:10087000C0F808C04768A7430C79C4F3001494403B
:100880003C4344600C79E443A4070AD0C4684FEAAF
:10089000420C06FA0CF7BC438F6807FA0CF72743A3
:1008A000C7600C7904F00304022C12D1D40800EBC9
:1008B000840CDCF820405707FF0E09FA07F824EAF9
:1008C0000804D1F8108008FA07F848EA0408CCF8C0
:1008D000208004684FEA420C06FA0CF7BC430F79FB
:1008E00007F0030707FA0CF7274307604C6814F476
:1008F000403F70D03C4C276847F48047276024680D
:1009000022F0030704F480440094384C07EB040CF5
:10091000DCF8084897074FEA177809FA08F7BC434C
:10092000334FB84202D1002724E054E0314FB8429F
:1009300001D101271EE0304FB84201D1022719E052
:100940002E4FB84201D1032714E02D4FB84201D1F8
:1009500004270FE02B4FB84201D105270AE02A4FA8
:10096000B84201D1062705E0284FB84201D1072738
:1009700000E0082707FA08F72743CCF80878DAF8E8
:1009800000405746D1F804C09C435FEACC2C00D508
:100990001C433C60DBF800405F46D1F804C09C4338
:1009A0005FEA8C2C00D51C433C60DEF800407746A3
:1009B000D1F804C09C435FEA8C3C00D51C433C60EA
:1009C000084F083F3C68D1F804C09C435FEACC3C28
:1009D00000D51C433C60521C102AFFF42FAFBDE829
:1009E000F88F0000083C01404438024000300140CC
:1009F000000002400004024000080240000C0240D7
:100A0000001002400014024000180240001C024086
:100A10000AB1816170470904FBE700000148806862
:100A200070470000140000200248816802781144D9
:100A300081607047140000200B4810B5016841F434
:100A400000710160016841F480610160016841F456
:100A500080710160032000F065F80F2000F006F8B7
:100A600000F024F8002010BD003C024070B50D4D90
:100A700004464FF47A712878B1FBF0F00A4909680E
:100A8000B1FBF0F000F0E2FA48B9102C07D20022D6
:100A90002146501E00F026F800206C6070BD012039
:100AA00070BD000014000020200000200C4882B01F
:100AB000016841F480410160006800F480400090CA
:100AC0000748001F016841F0805101600068002262
:100AD00000F0805000900F21901E02B000F002B88C
:100AE00044380240F0B40E4B1B680C46C3F302239B
:100AF000C3F10705042D00D90425191D072901D2CA
:100B0000002300E0DB1E012606FA05F1491E214004
:100B100099409E40761E16403143F0BC00F025BF40
:100B20000CED00E0064900F0070208684FF6FF03ED
:100B3000184040EA0220034A104308607047000052
:100B40000CED00E00000FA052DE9F0470E46050027
:100B500065D0DFF81481D8F80000F7B200F0070084
:100B6000B04207D288F80070D8F8000000F0070003
:100B7000B04254D128683D4C810712D5400703D5B7
:100B8000206840F4E05020602878000703D52068F2
:100B900040F4604020602068A96820F0F00008431D
:100BA00020602878C0072DD03049686808390128AE
:100BB00012D0022813D0032811D009688907002910
:100BC0002DDA216821F0030101432160FFF726FFA0
:100BD000814641F2883A0EE009688903EFE7096827
:100BE0008901ECE7FFF71AFFA0EB0901514502D993
:100BF0000320BDE8F0872068696800F00C00B0EBC6
:100C0000810FEFD1D8F80010404601F00701B14242
:100C100007D90770006800F00700B04201D001203A
:100C2000E7E72878400705D52068E96820F4E05018
:100C3000084320602878000706D52068296920F439
:100C4000604040EAC100206000F018F82168084ABE
:100C5000C1F30311515CC8400649086006480068AA
:100C6000FFF704FF0020C4E7003C024008380240C0
:100C70003C2600082000002018000020154810B570
:100C8000006810F00C02144813D01449042A0FD045
:100C9000082A0ED10F4C241F2268236802F03F025D
:100CA0005B0207D52068C0F38810A0FB010106E0B5
:100CB000084610BD2168C1F38811A1FB0001002383
:100CC000FFF732FB2168C1F30141491C4900B0FB29
:100CD000F1F010BD083802400024F400001BB700FA
:100CE0002DE9F84F04006ED02078DFF84C93C00750
:100CF000A9F104054AD009F104000168C1F381019A
:100D0000012908D00068C0F3810002280AD1D9F86F
:100D10000000400206D52868800337D560680028A7
:100D2000E1D033E06068B0F5803F10D0B0F5A02F7F
:100D3000286810D020F480302860286820F48020B3
:100D400028606068A8B1FFF769FE06460DE02868D4
:100D500040F48030F4E740F480202860F7E700BFDB
:100D6000FFF75CFE801B642873D828688003F7D5E2
:100D70000CE0FFF753FE064605E000BFFFF74EFE0E
:100D8000801B6428F0D828688003F7D42078DFF827
:100D9000AC8280074FF0000A3ED5A748001D0168CD
:100DA00011F00C0F08D00068C0F3810002280BD1AD
:100DB000D9F80000400207D42868800716D5E068FB
:100DC000012800D112E033E1E068B8B10120C8F891
:100DD0000000FFF723FE064605E000BFFFF71EFEFA
:100DE000801B0228C0D828688007F7D528682169A9
:100DF00020F0F80040EAC10028600DE0C8F800A02B
:100E0000FFF70CFE064604E0FFF708FE801B0228F1
:100E10001FD828688007F7D42078000722D5864F8E
:100E200087486169703771B101210160FFF7F6FDF4
:100E3000064604E0FFF7F2FD801B022809D8386857
:100E40008007F7D50EE0C0F800A0FFF7E7FD0646E3
:100E500005E082E0FFF7E2FD801B02287DD83868BC
:100E60008007F7D42078400768D5DFF8CCB1002799
:100E70000BF13C0BDBF80000C0000BD4DBF80010DA
:100E800041F08051CBF80010DBF80000012700F0A2
:100E9000805000906B4E3068C00510D4306840F42C
:100EA00080703060FFF7BAFD009005E0FFF7B6FDF7
:100EB0000099401A022850D83068C005F6D55E4E19
:100EC000A0686C3601280FD00528306810D020F0BB
:100ED00001003060306820F004003060A068B8B1D4
:100EE000FFF79CFD00900FE0306840F00100F4E750
:100EF00040F004003060F7E7FFF790FD0099411AD9
:100F000041F28830814266D830688007F4D50EE01F
:100F1000FFF784FD009007E0FFF780FD0099411A7C
:100F200041F28830814256D830688007F4D42FB11E
:100F3000DBF8001021F08051CBF80010A069C8B395
:100F40003D49091D0968C1F3810102294AD00228DF
:100F5000504607D0C8F8600000E03CE0FFF75EFDB7
:100F600004463BE04746C8F86000FFF757FD0646D9
:100F700005E000BFFFF752FD801B02282BD8286830
:100F80008001F7D4D4E907010843A16A2E4A490831
:100F900002EB0141626A41EA8211084394F82C1085
:100FA00040EA0161C9F8001001203866FFF736FDFC
:100FB000044606E03EE000BFFFF730FD001B0228BC
:100FC00009D828688001F7D534E000BFFFF726FD77
:100FD000001B022802D90320BDE8F88F2868800191
:100FE000F4D427E00128F7D0D9F80000E26900F432
:100FF000800191421CD1226A00F03F01914217D139
:1010000047F6C071626A0140B1EB821F10D1A26A3B
:101010004FF0FF3300F4403103EB5202B1EB024FCB
:1010200006D194F82C1000F07060B0EB016F01D085
:101030000120D1E70020CFE70438024000004742FA
:10104000800E4742007000400000FFFF10B5401EB8
:10105000B0F1807F01D3012010BD4FF0E02460612A
:101060000F21601700F081FC0020A06107202061A3
:10107000002010BD10B590F83C20012A22D001229A
:1010800080F83C20CA688C6822F4407222434C6885
:1010900022F4806222430C6822F4006222430C692D
:1010A00022F4805222434C6922F400522243C9693F
:1010B000002322F480420A4301684A6480F83C30ED
:1010C000002010BD022010BD70B590F83C20012A10
:1010D00032D0012480F83C40022280F83D20036891
:1010E0005A689D6822F070060A6832435A60134BB2
:1010F00002689A4214D0B2F1804F11D0104B9A423C
:101100000ED0104B9A420BD00F4B9A4208D00F4B87
:101110009A4205D00E4B9A4202D00E4B9A4204D10D
:10112000496825F080031943916080F83D40002113
:1011300080F83C10084670BD022070BD00000140E0
:101140000004004000080040000C00400004014082
:10115000004001400018004010B586B0044614213C
:101160006846FFF78AF90E492068884216D10D4873
:101170000021026842F010020260006800F01000D6
:1011800005904FF4007000900220CDE9010101208C
:10119000CDE9031069460448FFF742FB06B010BDD5
:1011A00000000140303802400010024070B5044693
:1011B00090F83C0000260D4601280FD0012084F84D
:1011C0003C006AB1042A1DD0082A2FD00C2A3FD037
:1011D0000126002084F83C00304670BD022070BD1E
:1011E000206800F0FFFA2068816941F00801816100
:1011F0002068816921F004018161206881692A6980
:10120000114311E0206800F01DFB2068816941F462
:10121000006181612068816921F4806181612068B9
:1012200081692A6941EA02218161D2E7206800F0E0
:101230003FFB2068C16941F00801C1612068C169B4
:1012400021F00401C1612068C1692A69114311E0DC
:10125000206800F061FB2068C16941F40061C16150
:101260002068C16921F48061C1612068C1692A696F
:1012700041EA0221C161ACE710B5040003D094F843
:101280003D0010B107E0012010BD002084F83C00B3
:10129000204600F01FF8022084F83D00211D206840
:1012A00000F02EFA012084F8460084F83E0084F80D
:1012B0003F0084F8400084F8410084F8420084F83C
:1012C000430084F8440084F8450084F83D00002081
:1012D00010BD000008B500680649884208D10648DC
:1012E000016841F001010160006800F00100009018
:1012F00008BD0000000001404438024010B504461B
:10130000022249B104290ED0082913D094F84100D3
:10131000012816D0012010BD94F83E000128F9D113
:1013200084F83E200FE094F83F000128F2D184F8C1
:101330003F2008E094F840000128EBD184F84020D9
:1013400001E084F841200122206800F03DFA1649AE
:101350002068164A884201D0904203D1436C43F47E
:10136000004343642068884213D0B0F1804F10D00E
:101370000F4988420DD00F4988420AD00E49884251
:1013800007D0904205D00D49884202D00C498842CE
:1013900004D1816801F00701062903D0016841F0FA
:1013A00001010160002010BD000001400004014067
:1013B0000004004000080040000C004000400140D4
:1013C00000180040FEE700000A4C4FF480664FF41E
:1013D000FA75012231462046FFF71AFB284600F035
:1013E00061FE002231462046FFF712FB284600F03E
:1013F00059FEEEE7001C02400A4C4FF4006640F232
:10140000EE25012231462046FFF702FB284600F078
:1014100049FE002231462046FFF7FAFA284600F03E
:1014200041FEEEE7001C02400F4810B50D49016077
:101430000321416000214FF410228160C0E90312B2
:101440004FF400124261017641768176C1760177D0
:101450004177FFF710F9002803D0BDE81040FFF7EF
:101460009AB810BD00640040E402002010B5A4B09A
:101470001C221C496846FEF7CEFF0021684600F09A
:10148000BCFA194C17491C2260601C3107A8FEF7F2
:10149000C2FF002107A800F0B0FA1249A0601C2288
:1014A00038310EA8FEF7B7FF00210EA800F0A5FA0C
:1014B0000C49E0601C22543115A8FEF7ACFF002156
:1014C00015A800F09AFA074920601C2270311CA868
:1014D000FEF7A1FF00211CA800F08FFA206124B0C4
:1014E00010BD0000B02500080000002070B586B0D7
:1014F00014216846FEF7C1FF1A480024016841F034
:1015000002010160016801F002010591016841F0EA
:1015100001010160016801F001010591016841F0DC
:1015200080010160016801F080010591016841F0CE
:101530001001016000680C4E00F010004FF4E055FF
:101540000590002229463046FFF762FA01200095F7
:10155000CDE90104694630460394FFF761F906B00E
:1015600070BD000030380240001C024010B592B03F
:1015700000240F941C2108A81094FEF77EFF202160
:101580006846FEF77AFF21481F49016040F28F61EB
:10159000C0E9011440F2E731C0E9031444618461F9
:1015A000FFF76AFE08B1FEF7F6FF0F940FA9174880
:1015B0001094FFF789FD08B1FEF7EDFF6020CDE93B
:1015C00008040A940B940C940D94002208A90F4867
:1015D0000E94FFF7EBFD08B1FEF7DDFF00944FF42A
:1015E0000050CDE9044002940194039469460748F1
:1015F0000794FFF73FFD08B1FEF7CDFF0348FFF763
:10160000ABFD12B010BD0000000001400C03002033
:10161000FEE7FEE700F06EFC4B26074C4FF47A75B0
:101620007D2720684663284600F0DAF92068476382
:10163000284600F0D5F9F4E70C030020012000F063
:10164000CFF9FBE710B5FFF7EFF900F0CDFE012869
:1016500003D0BDE8104000F04BBE10BD30B593B0D4
:1016600030216846FEF709FF14210CA8FEF705FF9C
:101670001D480025016841F080510160006800F0BC
:10168000805011901948016841F480410160006860
:10169000022400F480401190012000900004019089
:1016A0008001CDE9064006200890A820CDE9090474
:1016B00004200B906846FFF713FB08B172B6FEE7F3
:1016C0000CA90F2081E831004FF4A0500F904FF487
:1016D0008050109005210CA8FFF736FA002801D0A1
:1016E00072B6FEE713B030BD4038024000700040D3
:1016F0000248016841F470010160704788ED00E024
:10170000F0B50268254C264D264E274F274B4FF04B
:10171000804CA04209D0604507D0A84205D0B04215
:1017200003D0B84201D0984204D122F0700E4A682A
:1017300042EA0E02A0421BD0604519D0A84217D041
:10174000B04215D0B84213D0984211D0184DA842DB
:101750000ED0184DA8420BD0174DA84208D0174DF7
:10176000A84205D0164DA84202D0164DA84203D17A
:1017700022F44075CA682A434D6922F080022A4348
:1017800002608A68C2620A688262A04201D09842FE
:1017900001D10969016301214161F0BD00000140EF
:1017A0000004004000080040000C0040000401401C
:1017B0000040014000440140004801400018004042
:1017C000001C00400020004010B501F01F03012163
:1017D000046A99408C430462016A9A401143016291
:1017E00010BD0000F0B5026A22F001020262036A35
:1017F00042688469124E24F073050C682C4323F070
:1018000002058B682B430D4DA84201D0B04205D193
:1018100023F00807CB683B4323F00403A84201D020
:10182000B04205D14D6922F4407215438A692A43BA
:1018300042608461496841630362F0BD0000014079
:1018400000040140F0B5026A22F010020262026A4E
:10185000436884690D6824F4E64444EA05248D68ED
:1018600022F0200242EA05120F4D104EA84201D08C
:10187000B04206D1CF6822F0800242EA071222F07D
:101880004002A84201D0B04207D14D6923F4406321
:1018900043EA85038D6943EA8503436084614968AF
:1018A00081630262F0BD00000000014000040140BD
:1018B000F0B5026A22F480720262026A4368C46967
:1018C00022F4007224F073050C68124E2C438D68CC
:1018D00042EA05220E4DA84201D0B04206D1CF689F
:1018E00022F4006242EA072222F48062A84201D078
:1018F000B04207D14D6923F4405343EA05138D6983
:1019000043EA05134360C4614968C1630262F0BDE4
:10191000000001400004014030B5026A22F4805208
:101920000262046A4268C3690D6823F4E64343EA2D
:1019300005238D6824F4005444EA0534084DA84278
:1019400002D0084DA84204D14D6922F4804242EAF7
:1019500085124260C36149680164046230BD0000C1
:101960000000014000040140FEE70907090E0028BD
:1019700004DB00F1E02080F80014704700F00F0055
:1019800000F1E02080F8141D70470000FFF754F8C4
:10199000FFF764FEFFF7AAFDFFF7E8FDFFF744FD40
:1019A00000210448FFF7AAFCFFF760FD00F020F8D3
:1019B000FEE700000C0300200021842800D0C11C99
:1019C00008467047054C00231A461946B4F9000032
:1019D000FEF7B8FD0120FEF711FFF4E78C000020B0
:1019E00010B5002800D1012000F05CFB002010BDE4
:1019F00010B500F07FFB002010BD30B585B0044667
:101A00000D466169B4F90800002910D0A16971B1CF
:101A1000FFF7D2FF6269A1690192029100902B4603
:101A200022692168606800F0AFFC049010E0FFF7C5
:101A3000C3FF04A901910090208A2B4682B221683D
:101A4000606800F06BFC012802D005B0002030BDBA
:101A5000049805B030BD00002DE9F04104460F4662
:101A6000194EF5683068001D00F04EFA48B930682C
:101A7000012190F82C0001FA00F0316921EA000000
:101A80003061B4F1FF3F07D137B13068BDE8F041B4
:101A9000011D0E4800F07FBA2C4430684460AC420F
:101AA00006D23068011DB06BBDE8F04100F058BAB5
:101AB0003068011D706B00F053FAB06A844200D2A6
:101AC000B462BDE8F0810000240000203004002052
:101AD00070B5044600F06CFA1C4DA868401CA86064
:101AE000286810B1686938B10CE02C60A86801283A
:101AF00008D100F0EDF805E02868E16AC06A884284
:101B000000D82C60686A401C6862E06A01212A697A
:101B10008140114329610E4900EB800001EB8000F8
:101B2000211D00F038FA00F063FA686900280CD033
:101B30002868E16AC06A884207D206494FF080509F
:101B40000860BFF34F8FBFF36F8F70BD240000207C
:101B50005403002004ED00E070B50D4C60680028CF
:101B600015D00C4E00F024FAF068C568281D00F06E
:101B7000CBF9A068401EA0606068401E606000F065
:101B800037FA284600F008F860680028EAD170BDEE
:101B9000240000201C04002010B5044694F85110C5
:101BA00000290BD0012911D0022914D0502080F334
:101BB0001188BFF34F8FBFF36F8FFEE7206B00F0EC
:101BC0002DFA2046BDE8104000F028BA2046BDE8B6
:101BD000104000F023BA10BD4FF47051104810F0BF
:101BE000070F06D0C01D20F007000D49411AC1F5AE
:101BF00070510C4A1060002353600144083921F0F1
:101C00000701183A11604B600B600B1A43600160CA
:101C10004068906050604FF0004050617047000095
:101C20004404002078000020074E4FF08054074DF8
:101C3000FFF792FF30680128FAD92C60BFF34F8F6D
:101C4000BFF36F8FF4E700005403002004ED00E0C1
:101C50002DE9F0478146099E089D0A9C9A46521E2E
:101C6000206B00EB820020F00708002700290CD031
:101C7000002023180A5C83F834200A5C12B1401C4F
:101C80001028F6D384F8437001E084F83470072DEF
:101C900000D30625E5626564A764201D00F05DF9A8
:101CA00004F1180000F059F92461C5F10700A061A2
:101CB0006462E76484F8507052464946404600F03A
:101CC00003F92060002E00D03460BDE8F0870000EA
:101CD00070B500240F4D04EB840005EB800000F08C
:101CE00031F9641C072CF6D30B4800F02BF90B4894
:101CF00000F028F90A4800F025F90A4800F022F916
:101D0000094800F01FF90948034941631431816310
:101D100070BD000054030020E0030020F403002005
:101D2000080400201C0400203004002024000020AF
:101D300010B4144900E011460A688242FBD34B6894
:101D400003EB010C844503D1406818444860084601
:101D50000C68D0F804C00CEB0003A3420CD10A4B72
:101D60001B689A4206D05268624442600A68126850
:101D7000026002E0036000E00260814200D008607F
:101D800010BC704778000020600000200749486BB5
:101D90000068002805D0486BC068C0684068886249
:101DA00070474FF0FF308862704700002400002029
:101DB0000A484068B0F1FF3F07D0502080F31188F7
:101DC000BFF34F8FBFF36F8FFEE7502080F3118872
:101DD000BFF34F8FBFF36F8FFEE70000800000203E
:101DE0002DE9F0410546002600F0C8F9344F386867
:101DF00008B9FFF7F1FE7869054251D19DB1083568
:101E000015F0070F0FD005F00700C0F108000544DA
:101E100015F0070F07D0502080F31188BFF34F8FC4
:101E2000BFF36F8FFEE7002D3AD07868854237D830
:101E300024490846046801E0214604466068A84237
:101E400002D220680028F7D13868844228D0086878
:101E500000F10806206808606068411B10290FD94E
:101E6000601910F0070F07D0502080F31188BFF3DE
:101E70004F8FBFF36F8FFEE741606560FFF758FF3C
:101E800061687868401A7860BA68904200D2B86099
:101E900078690843606000202060F868401CF860A2
:101EA00000F01AFB16F0070F07D0502080F31188BE
:101EB000BFF34F8FBFF36F8FFEE73046BDE8F08171
:101EC0006000002078000020001F4FF08073036046
:101ED000001F21F001010160001F05490160143855
:101EE0000260001F6FF0020101602038704700009F
:101EF000B11D000803496420096848634FF47A70F3
:101F0000FFF76EBD0C0300200169436882689A6088
:101F1000836842685A604A68824201D182684A6096
:101F2000002202610868401E0860086870470000CF
:101F3000034B036003F15400086080201060704779
:101F40009000002000F1080141604FF0FF328260F4
:101F5000C16001610021016070470021016170478B
:101F600010B4D1F800C0BCF1FF3F02D000F108026C
:101F700002E0026904E01A4653681C686445FAD915
:101F800053684B6099608A60516008610168491C20
:101F9000016010BC704742684A6093688B60936828
:101FA0005960916008610168491C01607047000038
:101FB000502080F31188BFF34F8FBFF36F8F0A4912
:101FC0004868401C486001280CD10848006810F09F
:101FD000FF0F07D0502080F31188BFF34F8FBFF35E
:101FE0006F8FFEE7704700008000002004ED00E0E6
:101FF00009494868002806D0401E4860002801D1E1
:1020000080F311887047502080F31188BFF34F8F01
:10201000BFF36F8FFEE700008000002070B500283E
:102020002AD0A0F10804154D60686969084207D1FB
:10203000502080F31188BFF34F8FBFF36F8FFEE7FF
:1020400022683AB1502080F31188BFF34F8FBFF35D
:102050006F8FFEE78843606000F090F86068696801
:10206000084468602046FFF763FE2869401C286129
:10207000BDE8704000F030BA70BD00006000002084
:102080004FF0E02000210161816105494FF47A722F
:102090000968B1FBF2F1491E4161072101617047F6
:1020A0002000002010B502460020002A12D00F4860
:1020B000006B38B1502080F31188BFF34F8FBFF30E
:1020C0006F8FFEE700F05AF800211046FFF7C4FCBE
:1020D00000F002FA002807D105494FF0805008604F
:1020E000BFF34F8FBFF36F8F10BD0000240000209F
:1020F00004ED00E010B586B000240594049403AA12
:1021000004A905A8FFF714FF05980499019102900E
:102110000023009415A11748039A00F035F91649D9
:10212000C86208B1012000E0002001280AD0B0F107
:10213000FF3F19D1502080F31188BFF34F8FBFF3B9
:102140006F8FFEE7502080F31188BFF34F8FBFF3EE
:102150006F8F4FF0FF30886201204861CC6006B07D
:10216000BDE8104000F042B806B010BD49444C45EF
:1021700000000000291C0008240000200248016B18
:10218000491C01637047000024000020154A106BB1
:10219000002802D00120D06170470020D061106972
:1021A000B0FA80F0C0F11F000F4900EB800051F839
:1021B000203073B101EB800041684968416000F153
:1021C0000803994201D1496841604068C0681060C5
:1021D0007047502080F31188BFF34F8FBFF36F8F8C
:1021E000FEE70000240000205403002010B582B058
:1021F00038480168384A914207D1502080F311884D
:10220000BFF34F8FBFF36F8FFEE7006833498842FB
:1022100007D1502080F31188BFF34F8FBFF36F8F2A
:10222000FEE72F4908780190FF2008700878009099
:102230009DF800009DF8002000F0F000904207D0CB
:10224000502080F31188BFF34F8FBFF36F8FFEE7ED
:102250009DF80000234C00F0500020700720A06083
:102260009DF8000010F0800F0BD0A068401EA06009
:102270009DF80000400000909DF8000010F0800FD5
:10228000F3D1A068032807D0502080F31188BFF352
:102290004F8FBFF36F8FFEE74FF44070A06001983F
:1022A00008701148016841F470010160016841F053
:1022B00070410160FFF7E4FE00206060FDF7D8FF89
:1022C0000A48016841F040410160FDF7BDFF02B0DE
:1022D000002010BD00ED00E071C20F4170C20F413F
:1022E00000E400E08000002020ED00E034EF00E09A
:1022F00010B5502080F31188BFF34F8FBFF36F8F5D
:1023000000F080F818B104494FF0805008600020B8
:1023100080F3118810BD000004ED00E02DE9F04FBE
:1023200085B081460F9F0E9E8A4690469B464FEA97
:102330008800FFF755FD054628000AD05420FFF716
:102340004FFD04460CB1256304E02846FFF766FE06
:1023500000E000249CB1002084F8510003905B460B
:10236000424651460197009602944846FFF770FC9A
:102370002046FFF7ADFB05B00120BDE8F08F05B0AA
:102380004FF0FF30BDE8F08F70B586B00646DDF83F
:1023900028C00C9C0B98002816D0ECB1542504954D
:1023A0002063022084F85100002005AD0390CDF891
:1023B00000C0019502943046FFF74AFC2046FFF723
:1023C00087FB059806B070BD502080F31188BFF3DD
:1023D0004F8FBFF36F8FFEE7502080F31188BFF35C
:1023E0004F8FBFF36F8FFEE705484169002903D087
:1023F000006B18B100207047012070470220704721
:10240000240000202DE9F0470026314F386B0028CA
:1024100005D0B869401CB8613046BDE8F087F8685F
:10242000451CFD609DB9786B006838B1502080F381
:102430001188BFF34F8FBFF36F8FFEE7786BB96BD7
:102440007963B863386A401C3862FFF79FFCB86A4A
:10245000DFF8808085420FD34FF00109786B006868
:1024600038B1786BC068C4686068854212D2B862BF
:1024700002E04FF0FF30B8623868C06A00EB8000BD
:1024800058F82000012800D90126F8690028C3D097
:102490000126C1E7201DFFF737FDA06A18B104F13E
:1024A0001800FFF731FDE16A3A6909FA01F01043BB
:1024B000386101EB810008EB8000211DFFF76BFD07
:1024C000E06A3968C96A8842C8D30126C6E70000B5
:1024D00024000020540300202DE9F0470024A046EA
:1024E0002D4D286B002807D0FFF762FD286B401E9A
:1024F0002863286B40B149E0502080F31188BFF376
:102500004F8FBFF36F8FFEE7A86800283ED0234FA0
:102510003868012600B3A7F1B409F868C46804F16B
:102520001800FFF7F1FC201DFFF7EEFCE06A2A69B6
:1025300006FA00F11143296100EB800009EB8000ED
:10254000211DFFF728FDE06A2968C96A884200D387
:10255000EE6138680028E0D10CB1FFF717FCAC69D8
:1025600044B1FFF74FFF00B1EE61641E002CF8D1BB
:102570000020A861E86948B14FF0010808494FF010
:1025800080500860BFF34F8FBFF36F8FFFF730FDB0
:102590004046BDE8F0870000240000200804002029
:1025A00004ED00E04FF04070E1EE100A70470000CB
:1025B000702600083D160008000000000000000022
:1025C0008000000000000000000000004C26000811
:1025D000C913000800000000000000008000000097
:1025E0000000000000000000582600081516000832
:1025F0000200000000000000800000000000000059
:10260000000000007C260008F9130008000000000C
:10261000000000008000000000000000000000003A
:1026200064260008C5190008000000000000000032
:10263000800000000000000000000000000000001A
:102640000000000001020304060708094C45445F2E
:10265000426C756500000000536572766F546173BB
:102660006B0000004D6F746F725461736B0000005B
:1026700064656661756C745461736B004C45445FAE
:10268000477265656E000000A82600080000002063
:1026900090000000C40100083827000890000020C6
:1026A00018460000E00100080000000000000000E3
:1026B0000000000000000000000000000100000019
:1026C00010000000000000000024F40000000000E2
:1026D00000000000000000000000000000000000FA
:1026E00000000000000000000000000000000000EA
:1026F00000000000000000000000000000000000DA
:1027000000000000000000000000000000000000C9
:1027100000000000000000000000000000000000B9
:10272000000000000000000000000000AAAAAAAA01
:0827300000000000F4010000AC
:040000050800018965
:00000001FF
